{
  "_format": "hh-sol-artifact-1",
  "contractName": "CeltMinter",
  "sourceName": "contracts/CeltMinter.sol",
  "abi": [
    {
      "anonymous": false,
      "inputs": [
        {
          "indexed": false,
          "internalType": "address",
          "name": "previousAdmin",
          "type": "address"
        },
        {
          "indexed": false,
          "internalType": "address",
          "name": "newAdmin",
          "type": "address"
        }
      ],
      "name": "AdminChanged",
      "type": "event"
    },
    {
      "anonymous": false,
      "inputs": [
        {
          "indexed": true,
          "internalType": "address",
          "name": "account",
          "type": "address"
        },
        {
          "indexed": true,
          "internalType": "address",
          "name": "operator",
          "type": "address"
        },
        {
          "indexed": false,
          "internalType": "bool",
          "name": "approved",
          "type": "bool"
        }
      ],
      "name": "ApprovalForAll",
      "type": "event"
    },
    {
      "anonymous": false,
      "inputs": [
        {
          "indexed": true,
          "internalType": "address",
          "name": "beacon",
          "type": "address"
        }
      ],
      "name": "BeaconUpgraded",
      "type": "event"
    },
    {
      "anonymous": false,
      "inputs": [
        {
          "indexed": true,
          "internalType": "address",
          "name": "previousOwner",
          "type": "address"
        },
        {
          "indexed": true,
          "internalType": "address",
          "name": "newOwner",
          "type": "address"
        }
      ],
      "name": "OwnershipTransferred",
      "type": "event"
    },
    {
      "anonymous": false,
      "inputs": [
        {
          "indexed": false,
          "internalType": "address",
          "name": "account",
          "type": "address"
        }
      ],
      "name": "Paused",
      "type": "event"
    },
    {
      "anonymous": false,
      "inputs": [
        {
          "indexed": true,
          "internalType": "address",
          "name": "operator",
          "type": "address"
        },
        {
          "indexed": true,
          "internalType": "address",
          "name": "from",
          "type": "address"
        },
        {
          "indexed": true,
          "internalType": "address",
          "name": "to",
          "type": "address"
        },
        {
          "indexed": false,
          "internalType": "uint256[]",
          "name": "ids",
          "type": "uint256[]"
        },
        {
          "indexed": false,
          "internalType": "uint256[]",
          "name": "values",
          "type": "uint256[]"
        }
      ],
      "name": "TransferBatch",
      "type": "event"
    },
    {
      "anonymous": false,
      "inputs": [
        {
          "indexed": true,
          "internalType": "address",
          "name": "operator",
          "type": "address"
        },
        {
          "indexed": true,
          "internalType": "address",
          "name": "from",
          "type": "address"
        },
        {
          "indexed": true,
          "internalType": "address",
          "name": "to",
          "type": "address"
        },
        {
          "indexed": false,
          "internalType": "uint256",
          "name": "id",
          "type": "uint256"
        },
        {
          "indexed": false,
          "internalType": "uint256",
          "name": "value",
          "type": "uint256"
        }
      ],
      "name": "TransferSingle",
      "type": "event"
    },
    {
      "anonymous": false,
      "inputs": [
        {
          "indexed": false,
          "internalType": "string",
          "name": "value",
          "type": "string"
        },
        {
          "indexed": true,
          "internalType": "uint256",
          "name": "id",
          "type": "uint256"
        }
      ],
      "name": "URI",
      "type": "event"
    },
    {
      "anonymous": false,
      "inputs": [
        {
          "indexed": false,
          "internalType": "address",
          "name": "account",
          "type": "address"
        }
      ],
      "name": "Unpaused",
      "type": "event"
    },
    {
      "anonymous": false,
      "inputs": [
        {
          "indexed": true,
          "internalType": "address",
          "name": "implementation",
          "type": "address"
        }
      ],
      "name": "Upgraded",
      "type": "event"
    },
    {
      "inputs": [
        {
          "internalType": "address",
          "name": "account",
          "type": "address"
        },
        {
          "internalType": "uint256",
          "name": "id",
          "type": "uint256"
        }
      ],
      "name": "balanceOf",
      "outputs": [
        {
          "internalType": "uint256",
          "name": "",
          "type": "uint256"
        }
      ],
      "stateMutability": "view",
      "type": "function"
    },
    {
      "inputs": [
        {
          "internalType": "address[]",
          "name": "accounts",
          "type": "address[]"
        },
        {
          "internalType": "uint256[]",
          "name": "ids",
          "type": "uint256[]"
        }
      ],
      "name": "balanceOfBatch",
      "outputs": [
        {
          "internalType": "uint256[]",
          "name": "",
          "type": "uint256[]"
        }
      ],
      "stateMutability": "view",
      "type": "function"
    },
    {
      "inputs": [
        {
          "internalType": "uint256",
          "name": "tokenId",
          "type": "uint256"
        }
      ],
      "name": "burn",
      "outputs": [],
      "stateMutability": "nonpayable",
      "type": "function"
    },
    {
      "inputs": [
        {
          "internalType": "uint256",
          "name": "amount",
          "type": "uint256"
        },
        {
          "internalType": "bool",
          "name": "levelup",
          "type": "bool"
        }
      ],
      "name": "claim",
      "outputs": [],
      "stateMutability": "payable",
      "type": "function"
    },
    {
      "inputs": [
        {
          "internalType": "address",
          "name": "greenFailCoin",
          "type": "address"
        },
        {
          "internalType": "string",
          "name": "tokenUri",
          "type": "string"
        }
      ],
      "name": "initialize",
      "outputs": [],
      "stateMutability": "nonpayable",
      "type": "function"
    },
    {
      "inputs": [
        {
          "internalType": "address",
          "name": "account",
          "type": "address"
        },
        {
          "internalType": "address",
          "name": "operator",
          "type": "address"
        }
      ],
      "name": "isApprovedForAll",
      "outputs": [
        {
          "internalType": "bool",
          "name": "",
          "type": "bool"
        }
      ],
      "stateMutability": "view",
      "type": "function"
    },
    {
      "inputs": [],
      "name": "owner",
      "outputs": [
        {
          "internalType": "address",
          "name": "",
          "type": "address"
        }
      ],
      "stateMutability": "view",
      "type": "function"
    },
    {
      "inputs": [],
      "name": "pause",
      "outputs": [],
      "stateMutability": "nonpayable",
      "type": "function"
    },
    {
      "inputs": [],
      "name": "paused",
      "outputs": [
        {
          "internalType": "bool",
          "name": "",
          "type": "bool"
        }
      ],
      "stateMutability": "view",
      "type": "function"
    },
    {
      "inputs": [],
      "name": "proxiableUUID",
      "outputs": [
        {
          "internalType": "bytes32",
          "name": "",
          "type": "bytes32"
        }
      ],
      "stateMutability": "view",
      "type": "function"
    },
    {
      "inputs": [],
      "name": "renounceOwnership",
      "outputs": [],
      "stateMutability": "nonpayable",
      "type": "function"
    },
    {
      "inputs": [
        {
          "internalType": "address",
          "name": "from",
          "type": "address"
        },
        {
          "internalType": "address",
          "name": "to",
          "type": "address"
        },
        {
          "internalType": "uint256[]",
          "name": "ids",
          "type": "uint256[]"
        },
        {
          "internalType": "uint256[]",
          "name": "amounts",
          "type": "uint256[]"
        },
        {
          "internalType": "bytes",
          "name": "data",
          "type": "bytes"
        }
      ],
      "name": "safeBatchTransferFrom",
      "outputs": [],
      "stateMutability": "nonpayable",
      "type": "function"
    },
    {
      "inputs": [
        {
          "internalType": "address",
          "name": "from",
          "type": "address"
        },
        {
          "internalType": "address",
          "name": "to",
          "type": "address"
        },
        {
          "internalType": "uint256",
          "name": "id",
          "type": "uint256"
        },
        {
          "internalType": "uint256",
          "name": "amount",
          "type": "uint256"
        },
        {
          "internalType": "bytes",
          "name": "data",
          "type": "bytes"
        }
      ],
      "name": "safeTransferFrom",
      "outputs": [],
      "stateMutability": "nonpayable",
      "type": "function"
    },
    {
      "inputs": [
        {
          "internalType": "address",
          "name": "operator",
          "type": "address"
        },
        {
          "internalType": "bool",
          "name": "approved",
          "type": "bool"
        }
      ],
      "name": "setApprovalForAll",
      "outputs": [],
      "stateMutability": "nonpayable",
      "type": "function"
    },
    {
      "inputs": [
        {
          "internalType": "uint256",
          "name": "fee",
          "type": "uint256"
        }
      ],
      "name": "setFee",
      "outputs": [],
      "stateMutability": "nonpayable",
      "type": "function"
    },
    {
      "inputs": [
        {
          "internalType": "uint256",
          "name": "airdropAmount",
          "type": "uint256"
        }
      ],
      "name": "setGreenFalAirdropAmount",
      "outputs": [],
      "stateMutability": "nonpayable",
      "type": "function"
    },
    {
      "inputs": [
        {
          "internalType": "string",
          "name": "domain",
          "type": "string"
        }
      ],
      "name": "setUri",
      "outputs": [],
      "stateMutability": "nonpayable",
      "type": "function"
    },
    {
      "inputs": [
        {
          "internalType": "bytes4",
          "name": "interfaceId",
          "type": "bytes4"
        }
      ],
      "name": "supportsInterface",
      "outputs": [
        {
          "internalType": "bool",
          "name": "",
          "type": "bool"
        }
      ],
      "stateMutability": "view",
      "type": "function"
    },
    {
      "inputs": [
        {
          "internalType": "address",
          "name": "newOwner",
          "type": "address"
        }
      ],
      "name": "transferOwnership",
      "outputs": [],
      "stateMutability": "nonpayable",
      "type": "function"
    },
    {
      "inputs": [],
      "name": "unpause",
      "outputs": [],
      "stateMutability": "nonpayable",
      "type": "function"
    },
    {
      "inputs": [
        {
          "internalType": "address",
          "name": "newImplementation",
          "type": "address"
        }
      ],
      "name": "upgradeTo",
      "outputs": [],
      "stateMutability": "nonpayable",
      "type": "function"
    },
    {
      "inputs": [
        {
          "internalType": "address",
          "name": "newImplementation",
          "type": "address"
        },
        {
          "internalType": "bytes",
          "name": "data",
          "type": "bytes"
        }
      ],
      "name": "upgradeToAndCall",
      "outputs": [],
      "stateMutability": "payable",
      "type": "function"
    },
    {
      "inputs": [
        {
          "internalType": "uint256",
          "name": "_tokenId",
          "type": "uint256"
        }
      ],
      "name": "uri",
      "outputs": [
        {
          "internalType": "string",
          "name": "",
          "type": "string"
        }
      ],
      "stateMutability": "view",
      "type": "function"
    },
    {
      "inputs": [
        {
          "internalType": "uint256",
          "name": "withdrawAmount",
          "type": "uint256"
        }
      ],
      "name": "withdraw",
      "outputs": [],
      "stateMutability": "nonpayable",
      "type": "function"
    }
  ],
  "bytecode": "0x60a06040523073ffffffffffffffffffffffffffffffffffffffff1660809073ffffffffffffffffffffffffffffffffffffffff1681525034801561004357600080fd5b506080516157e06200007c60003960008181610a4501528181610ad401528181610d7c01528181610e0b0152610ebb01526157e06000f3fe60806040526004361061014a5760003560e01c80635c975abb116100b65780639b642de11161006f5780639b642de114610437578063a22cb46514610460578063e985e9c514610489578063f242432a146104c6578063f2fde38b146104ef578063f399e22e146105185761014a565b80635c975abb1461036e57806369fe0e2d14610399578063715018a6146103c257806371baa1af146103d95780638456cb59146103f55780638da5cb5b1461040c5761014a565b80633659cfe6116101085780633659cfe6146102815780633f4ba83a146102aa57806342966c68146102c15780634e1273f4146102ea5780634f1ef2861461032757806352d1902d146103435761014a565b8062fdd58e1461014f57806301ffc9a71461018c5780630e89341c146101c95780630ffcd681146102065780632e1a7d4d1461022f5780632eb2c2d614610258575b600080fd5b34801561015b57600080fd5b50610176600480360381019061017191906134b0565b610541565b60405161018391906134ff565b60405180910390f35b34801561019857600080fd5b506101b360048036038101906101ae9190613572565b61060b565b6040516101c091906135ba565b60405180910390f35b3480156101d557600080fd5b506101f060048036038101906101eb91906135d5565b6106ed565b6040516101fd919061369b565b60405180910390f35b34801561021257600080fd5b5061022d600480360381019061022891906135d5565b61072e565b005b34801561023b57600080fd5b50610256600480360381019061025191906135d5565b6107f8565b005b34801561026457600080fd5b5061027f600480360381019061027a91906138ba565b6109a2565b005b34801561028d57600080fd5b506102a860048036038101906102a39190613989565b610a43565b005b3480156102b657600080fd5b506102bf610bcc565b005b3480156102cd57600080fd5b506102e860048036038101906102e391906135d5565b610c52565b005b3480156102f657600080fd5b50610311600480360381019061030c9190613a79565b610c61565b60405161031e9190613baf565b60405180910390f35b610341600480360381019061033c9190613bd1565b610d7a565b005b34801561034f57600080fd5b50610358610eb7565b6040516103659190613c46565b60405180910390f35b34801561037a57600080fd5b50610383610f70565b60405161039091906135ba565b60405180910390f35b3480156103a557600080fd5b506103c060048036038101906103bb91906135d5565b610f88565b005b3480156103ce57600080fd5b506103d7611052565b005b6103f360048036038101906103ee9190613c8d565b6110da565b005b34801561040157600080fd5b5061040a611278565b005b34801561041857600080fd5b506104216112fe565b60405161042e9190613cdc565b60405180910390f35b34801561044357600080fd5b5061045e60048036038101906104599190613d98565b611328565b005b34801561046c57600080fd5b5061048760048036038101906104829190613de1565b6113b0565b005b34801561049557600080fd5b506104b060048036038101906104ab9190613e21565b6113c6565b6040516104bd91906135ba565b60405180910390f35b3480156104d257600080fd5b506104ed60048036038101906104e89190613e61565b61145a565b005b3480156104fb57600080fd5b5061051660048036038101906105119190613989565b6114fb565b005b34801561052457600080fd5b5061053f600480360381019061053a9190613f53565b6115f3565b005b60008073ffffffffffffffffffffffffffffffffffffffff168373ffffffffffffffffffffffffffffffffffffffff1614156105b2576040517f08c379a00000000000000000000000000000000000000000000000000000000081526004016105a990614025565b60405180910390fd5b6065600083815260200190815260200160002060008473ffffffffffffffffffffffffffffffffffffffff1673ffffffffffffffffffffffffffffffffffffffff16815260200190815260200160002054905092915050565b60007fd9b67a26000000000000000000000000000000000000000000000000000000007bffffffffffffffffffffffffffffffffffffffffffffffffffffffff1916827bffffffffffffffffffffffffffffffffffffffffffffffffffffffff191614806106d657507f0e89341c000000000000000000000000000000000000000000000000000000007bffffffffffffffffffffffffffffffffffffffffffffffffffffffff1916827bffffffffffffffffffffffffffffffffffffffffffffffffffffffff1916145b806106e657506106e5826117ad565b5b9050919050565b60606101636107076001846107029190614074565b611817565b604051602001610718929190614247565b6040516020818303038152906040529050919050565b610736611978565b73ffffffffffffffffffffffffffffffffffffffff166107546112fe565b73ffffffffffffffffffffffffffffffffffffffff16146107aa576040517f08c379a00000000000000000000000000000000000000000000000000000000081526004016107a1906142c2565b60405180910390fd5b600081116107ed576040517f08c379a00000000000000000000000000000000000000000000000000000000081526004016107e49061432e565b60405180910390fd5b806101618190555050565b610800611978565b73ffffffffffffffffffffffffffffffffffffffff1661081e6112fe565b73ffffffffffffffffffffffffffffffffffffffff1614610874576040517f08c379a000000000000000000000000000000000000000000000000000000000815260040161086b906142c2565b60405180910390fd5b600081116108b7576040517f08c379a00000000000000000000000000000000000000000000000000000000081526004016108ae906143c0565b60405180910390fd5b478111156109315760003073ffffffffffffffffffffffffffffffffffffffff16476040516108e590614411565b60006040518083038185875af1925050503d8060008114610922576040519150601f19603f3d011682016040523d82523d6000602084013e610927565b606091505b505090505061099f565b60003073ffffffffffffffffffffffffffffffffffffffff168260405161095790614411565b60006040518083038185875af1925050503d8060008114610994576040519150601f19603f3d011682016040523d82523d6000602084013e610999565b606091505b50509050505b50565b6109aa611978565b73ffffffffffffffffffffffffffffffffffffffff168573ffffffffffffffffffffffffffffffffffffffff1614806109f057506109ef856109ea611978565b6113c6565b5b610a2f576040517f08c379a0000000000000000000000000000000000000000000000000000000008152600401610a2690614498565b60405180910390fd5b610a3c8585858585611980565b5050505050565b7f000000000000000000000000000000000000000000000000000000000000000073ffffffffffffffffffffffffffffffffffffffff163073ffffffffffffffffffffffffffffffffffffffff161415610ad2576040517f08c379a0000000000000000000000000000000000000000000000000000000008152600401610ac99061452a565b60405180910390fd5b7f000000000000000000000000000000000000000000000000000000000000000073ffffffffffffffffffffffffffffffffffffffff16610b11611c97565b73ffffffffffffffffffffffffffffffffffffffff1614610b67576040517f08c379a0000000000000000000000000000000000000000000000000000000008152600401610b5e906145bc565b60405180910390fd5b610b7081611cee565b610bc981600067ffffffffffffffff811115610b8f57610b8e6136c2565b5b6040519080825280601f01601f191660200182016040528015610bc15781602001600182028036833780820191505090505b506000611d6d565b50565b610bd4611978565b73ffffffffffffffffffffffffffffffffffffffff16610bf26112fe565b73ffffffffffffffffffffffffffffffffffffffff1614610c48576040517f08c379a0000000000000000000000000000000000000000000000000000000008152600401610c3f906142c2565b60405180910390fd5b610c50611eea565b565b610c5e33826001611f8d565b50565b60608151835114610ca7576040517f08c379a0000000000000000000000000000000000000000000000000000000008152600401610c9e9061464e565b60405180910390fd5b6000835167ffffffffffffffff811115610cc457610cc36136c2565b5b604051908082528060200260200182016040528015610cf25781602001602082028036833780820191505090505b50905060005b8451811015610d6f57610d3f858281518110610d1757610d1661466e565b5b6020026020010151858381518110610d3257610d3161466e565b5b6020026020010151610541565b828281518110610d5257610d5161466e565b5b60200260200101818152505080610d689061469d565b9050610cf8565b508091505092915050565b7f000000000000000000000000000000000000000000000000000000000000000073ffffffffffffffffffffffffffffffffffffffff163073ffffffffffffffffffffffffffffffffffffffff161415610e09576040517f08c379a0000000000000000000000000000000000000000000000000000000008152600401610e009061452a565b60405180910390fd5b7f000000000000000000000000000000000000000000000000000000000000000073ffffffffffffffffffffffffffffffffffffffff16610e48611c97565b73ffffffffffffffffffffffffffffffffffffffff1614610e9e576040517f08c379a0000000000000000000000000000000000000000000000000000000008152600401610e95906145bc565b60405180910390fd5b610ea782611cee565b610eb382826001611d6d565b5050565b60007f000000000000000000000000000000000000000000000000000000000000000073ffffffffffffffffffffffffffffffffffffffff163073ffffffffffffffffffffffffffffffffffffffff1614610f47576040517f08c379a0000000000000000000000000000000000000000000000000000000008152600401610f3e90614758565b60405180910390fd5b7f360894a13ba1a3210667c828492db98dca3e2076cc3735a920a3ca505d382bbc60001b905090565b600061012d60009054906101000a900460ff16905090565b610f90611978565b73ffffffffffffffffffffffffffffffffffffffff16610fae6112fe565b73ffffffffffffffffffffffffffffffffffffffff1614611004576040517f08c379a0000000000000000000000000000000000000000000000000000000008152600401610ffb906142c2565b60405180910390fd5b60008111611047576040517f08c379a000000000000000000000000000000000000000000000000000000000815260040161103e9061432e565b60405180910390fd5b806101628190555050565b61105a611978565b73ffffffffffffffffffffffffffffffffffffffff166110786112fe565b73ffffffffffffffffffffffffffffffffffffffff16146110ce576040517f08c379a00000000000000000000000000000000000000000000000000000000081526004016110c5906142c2565b60405180910390fd5b6110d860006121ac565b565b6110e2610f70565b15611122576040517f08c379a0000000000000000000000000000000000000000000000000000000008152600401611119906147c4565b60405180910390fd5b816101625461113191906147e4565b3411611172576040517f08c379a00000000000000000000000000000000000000000000000000000000081526004016111699061488a565b60405180910390fd5b6103e882106111b6576040517f08c379a00000000000000000000000000000000000000000000000000000000081526004016111ad906148f6565b60405180910390fd5b60005b8281101561122b5761120d336111d061015f612272565b60016040518060400160405280600481526020017f3078303000000000000000000000000000000000000000000000000000000000815250612280565b61121861015f612417565b80806112239061469d565b9150506111b9565b50801561125b57611256336005610161548561124791906147e4565b61125191906147e4565b61242d565b611274565b61127333610161548461126e91906147e4565b61242d565b5b5050565b611280611978565b73ffffffffffffffffffffffffffffffffffffffff1661129e6112fe565b73ffffffffffffffffffffffffffffffffffffffff16146112f4576040517f08c379a00000000000000000000000000000000000000000000000000000000081526004016112eb906142c2565b60405180910390fd5b6112fc6124e2565b565b600060fb60009054906101000a900473ffffffffffffffffffffffffffffffffffffffff16905090565b611330611978565b73ffffffffffffffffffffffffffffffffffffffff1661134e6112fe565b73ffffffffffffffffffffffffffffffffffffffff16146113a4576040517f08c379a000000000000000000000000000000000000000000000000000000000815260040161139b906142c2565b60405180910390fd5b6113ad81612586565b50565b6113c26113bb611978565b83836125a0565b5050565b6000606660008473ffffffffffffffffffffffffffffffffffffffff1673ffffffffffffffffffffffffffffffffffffffff16815260200190815260200160002060008373ffffffffffffffffffffffffffffffffffffffff1673ffffffffffffffffffffffffffffffffffffffff16815260200190815260200160002060009054906101000a900460ff16905092915050565b611462611978565b73ffffffffffffffffffffffffffffffffffffffff168573ffffffffffffffffffffffffffffffffffffffff1614806114a857506114a7856114a2611978565b6113c6565b5b6114e7576040517f08c379a00000000000000000000000000000000000000000000000000000000081526004016114de90614988565b60405180910390fd5b6114f4858585858561270d565b5050505050565b611503611978565b73ffffffffffffffffffffffffffffffffffffffff166115216112fe565b73ffffffffffffffffffffffffffffffffffffffff1614611577576040517f08c379a000000000000000000000000000000000000000000000000000000000815260040161156e906142c2565b60405180910390fd5b600073ffffffffffffffffffffffffffffffffffffffff168173ffffffffffffffffffffffffffffffffffffffff1614156115e7576040517f08c379a00000000000000000000000000000000000000000000000000000000081526004016115de90614a1a565b60405180910390fd5b6115f0816121ac565b50565b600060019054906101000a900460ff1661161b5760008054906101000a900460ff1615611624565b611623612992565b5b611663576040517f08c379a000000000000000000000000000000000000000000000000000000000815260040161165a90614aac565b60405180910390fd5b60008060019054906101000a900460ff1615905080156116b3576001600060016101000a81548160ff02191690831515021790555060016000806101000a81548160ff0219169083151502179055505b6116bb6129a3565b6116c36129fc565b61171083838080601f016020809104026020016040519081016040528093929190818152602001838380828437600081840152601f19601f82011690508083019250505050505050612a55565b69021e19e0c9bab24000006101618190555066038d7ea4c6800061016281905550828261016391906117439291906132df565b508361016060006101000a81548173ffffffffffffffffffffffffffffffffffffffff021916908373ffffffffffffffffffffffffffffffffffffffff16021790555080156117a75760008060016101000a81548160ff0219169083151502179055505b50505050565b60007f01ffc9a7000000000000000000000000000000000000000000000000000000007bffffffffffffffffffffffffffffffffffffffffffffffffffffffff1916827bffffffffffffffffffffffffffffffffffffffffffffffffffffffff1916149050919050565b6060600082141561185f576040518060400160405280600181526020017f30000000000000000000000000000000000000000000000000000000000000008152509050611973565b600082905060005b6000821461189157808061187a9061469d565b915050600a8261188a9190614afb565b9150611867565b60008167ffffffffffffffff8111156118ad576118ac6136c2565b5b6040519080825280601f01601f1916602001820160405280156118df5781602001600182028036833780820191505090505b5090505b6000851461196c576001826118f89190614b2c565b9150600a856119079190614b60565b60306119139190614074565b60f81b8183815181106119295761192861466e565b5b60200101907effffffffffffffffffffffffffffffffffffffffffffffffffffffffffffff1916908160001a905350600a856119659190614afb565b94506118e3565b8093505050505b919050565b600033905090565b81518351146119c4576040517f08c379a00000000000000000000000000000000000000000000000000000000081526004016119bb90614c03565b60405180910390fd5b600073ffffffffffffffffffffffffffffffffffffffff168473ffffffffffffffffffffffffffffffffffffffff161415611a34576040517f08c379a0000000000000000000000000000000000000000000000000000000008152600401611a2b90614c95565b60405180910390fd5b6000611a3e611978565b9050611a4e818787878787612ab0565b60005b8451811015611c02576000858281518110611a6f57611a6e61466e565b5b602002602001015190506000858381518110611a8e57611a8d61466e565b5b6020026020010151905060006065600084815260200190815260200160002060008b73ffffffffffffffffffffffffffffffffffffffff1673ffffffffffffffffffffffffffffffffffffffff16815260200190815260200160002054905081811015611b30576040517f08c379a0000000000000000000000000000000000000000000000000000000008152600401611b2790614d27565b60405180910390fd5b8181036065600085815260200190815260200160002060008c73ffffffffffffffffffffffffffffffffffffffff1673ffffffffffffffffffffffffffffffffffffffff16815260200190815260200160002081905550816065600085815260200190815260200160002060008b73ffffffffffffffffffffffffffffffffffffffff1673ffffffffffffffffffffffffffffffffffffffff1681526020019081526020016000206000828254611be79190614074565b9250508190555050505080611bfb9061469d565b9050611a51565b508473ffffffffffffffffffffffffffffffffffffffff168673ffffffffffffffffffffffffffffffffffffffff168273ffffffffffffffffffffffffffffffffffffffff167f4a39dc06d4c0dbc64b70af90fd698a233a518aa5d07e595d983b8c0526c8f7fb8787604051611c79929190614d47565b60405180910390a4611c8f818787878787612ab8565b505050505050565b6000611cc57f360894a13ba1a3210667c828492db98dca3e2076cc3735a920a3ca505d382bbc60001b612c9f565b60000160009054906101000a900473ffffffffffffffffffffffffffffffffffffffff16905090565b611cf6611978565b73ffffffffffffffffffffffffffffffffffffffff16611d146112fe565b73ffffffffffffffffffffffffffffffffffffffff1614611d6a576040517f08c379a0000000000000000000000000000000000000000000000000000000008152600401611d61906142c2565b60405180910390fd5b50565b611d997f4910fdfa16fed3260ed0e7147f7cc6da11a60208b5b9406d12a635614ffd914360001b612ca9565b60000160009054906101000a900460ff1615611dbd57611db883612cb3565b611ee5565b8273ffffffffffffffffffffffffffffffffffffffff166352d1902d6040518163ffffffff1660e01b815260040160206040518083038186803b158015611e0357600080fd5b505afa925050508015611e3457506040513d601f19601f82011682018060405250810190611e319190614daa565b60015b611e73576040517f08c379a0000000000000000000000000000000000000000000000000000000008152600401611e6a90614e49565b60405180910390fd5b7f360894a13ba1a3210667c828492db98dca3e2076cc3735a920a3ca505d382bbc60001b8114611ed8576040517f08c379a0000000000000000000000000000000000000000000000000000000008152600401611ecf90614edb565b60405180910390fd5b50611ee4838383612d6c565b5b505050565b611ef2610f70565b611f31576040517f08c379a0000000000000000000000000000000000000000000000000000000008152600401611f2890614f47565b60405180910390fd5b600061012d60006101000a81548160ff0219169083151502179055507f5db9ee0a495bf2e6ff9c91a7834c1ba4fdd244a5e8aa4e537bd38aeae4b073aa611f76611978565b604051611f839190613cdc565b60405180910390a1565b600073ffffffffffffffffffffffffffffffffffffffff168373ffffffffffffffffffffffffffffffffffffffff161415611ffd576040517f08c379a0000000000000000000000000000000000000000000000000000000008152600401611ff490614fd9565b60405180910390fd5b6000612007611978565b90506120378185600061201987612d98565b61202287612d98565b60405180602001604052806000815250612ab0565b60006065600085815260200190815260200160002060008673ffffffffffffffffffffffffffffffffffffffff1673ffffffffffffffffffffffffffffffffffffffff168152602001908152602001600020549050828110156120cf576040517f08c379a00000000000000000000000000000000000000000000000000000000081526004016120c69061506b565b60405180910390fd5b8281036065600086815260200190815260200160002060008773ffffffffffffffffffffffffffffffffffffffff1673ffffffffffffffffffffffffffffffffffffffff16815260200190815260200160002081905550600073ffffffffffffffffffffffffffffffffffffffff168573ffffffffffffffffffffffffffffffffffffffff168373ffffffffffffffffffffffffffffffffffffffff167fc3d58168c5ae7397731d063d5bbf3d657854427343f4c083240f7aacaa2d0f62878760405161219d92919061508b565b60405180910390a45050505050565b600060fb60009054906101000a900473ffffffffffffffffffffffffffffffffffffffff1690508160fb60006101000a81548173ffffffffffffffffffffffffffffffffffffffff021916908373ffffffffffffffffffffffffffffffffffffffff1602179055508173ffffffffffffffffffffffffffffffffffffffff168173ffffffffffffffffffffffffffffffffffffffff167f8be0079c531659141344cd1fd0a4f28419497f9722a3daafe3b4186f6b6457e060405160405180910390a35050565b600081600001549050919050565b600073ffffffffffffffffffffffffffffffffffffffff168473ffffffffffffffffffffffffffffffffffffffff1614156122f0576040517f08c379a00000000000000000000000000000000000000000000000000000000081526004016122e790615126565b60405180910390fd5b60006122fa611978565b905061231b8160008761230c88612d98565b61231588612d98565b87612ab0565b826065600086815260200190815260200160002060008773ffffffffffffffffffffffffffffffffffffffff1673ffffffffffffffffffffffffffffffffffffffff168152602001908152602001600020600082825461237b9190614074565b925050819055508473ffffffffffffffffffffffffffffffffffffffff16600073ffffffffffffffffffffffffffffffffffffffff168273ffffffffffffffffffffffffffffffffffffffff167fc3d58168c5ae7397731d063d5bbf3d657854427343f4c083240f7aacaa2d0f6287876040516123f992919061508b565b60405180910390a461241081600087878787612e12565b5050505050565b6001816000016000828254019250508190555050565b61016060009054906101000a900473ffffffffffffffffffffffffffffffffffffffff1673ffffffffffffffffffffffffffffffffffffffff1663a9059cbb83836040518363ffffffff1660e01b815260040161248b929190615146565b602060405180830381600087803b1580156124a557600080fd5b505af11580156124b9573d6000803e3d6000fd5b505050506040513d601f19601f820116820180604052508101906124dd9190615184565b505050565b6124ea610f70565b1561252a576040517f08c379a0000000000000000000000000000000000000000000000000000000008152600401612521906147c4565b60405180910390fd5b600161012d60006101000a81548160ff0219169083151502179055507f62e78cea01bee320cd4e420270b5ea74000d11b0c9f74754ebdbfc544b05a25861256f611978565b60405161257c9190613cdc565b60405180910390a1565b806067908051906020019061259c929190613365565b5050565b8173ffffffffffffffffffffffffffffffffffffffff168373ffffffffffffffffffffffffffffffffffffffff16141561260f576040517f08c379a000000000000000000000000000000000000000000000000000000000815260040161260690615223565b60405180910390fd5b80606660008573ffffffffffffffffffffffffffffffffffffffff1673ffffffffffffffffffffffffffffffffffffffff16815260200190815260200160002060008473ffffffffffffffffffffffffffffffffffffffff1673ffffffffffffffffffffffffffffffffffffffff16815260200190815260200160002060006101000a81548160ff0219169083151502179055508173ffffffffffffffffffffffffffffffffffffffff168373ffffffffffffffffffffffffffffffffffffffff167f17307eab39ab6107e8899845ad3d59bd9653f200f220920489ca2b5937696c318360405161270091906135ba565b60405180910390a3505050565b600073ffffffffffffffffffffffffffffffffffffffff168473ffffffffffffffffffffffffffffffffffffffff16141561277d576040517f08c379a000000000000000000000000000000000000000000000000000000000815260040161277490614c95565b60405180910390fd5b6000612787611978565b90506127a781878761279888612d98565b6127a188612d98565b87612ab0565b60006065600086815260200190815260200160002060008873ffffffffffffffffffffffffffffffffffffffff1673ffffffffffffffffffffffffffffffffffffffff1681526020019081526020016000205490508381101561283f576040517f08c379a000000000000000000000000000000000000000000000000000000000815260040161283690614d27565b60405180910390fd5b8381036065600087815260200190815260200160002060008973ffffffffffffffffffffffffffffffffffffffff1673ffffffffffffffffffffffffffffffffffffffff16815260200190815260200160002081905550836065600087815260200190815260200160002060008873ffffffffffffffffffffffffffffffffffffffff1673ffffffffffffffffffffffffffffffffffffffff16815260200190815260200160002060008282546128f69190614074565b925050819055508573ffffffffffffffffffffffffffffffffffffffff168773ffffffffffffffffffffffffffffffffffffffff168373ffffffffffffffffffffffffffffffffffffffff167fc3d58168c5ae7397731d063d5bbf3d657854427343f4c083240f7aacaa2d0f62888860405161297392919061508b565b60405180910390a4612989828888888888612e12565b50505050505050565b600061299d30612ff9565b15905090565b600060019054906101000a900460ff166129f2576040517f08c379a00000000000000000000000000000000000000000000000000000000081526004016129e9906152b5565b60405180910390fd5b6129fa61301c565b565b600060019054906101000a900460ff16612a4b576040517f08c379a0000000000000000000000000000000000000000000000000000000008152600401612a42906152b5565b60405180910390fd5b612a53613089565b565b600060019054906101000a900460ff16612aa4576040517f08c379a0000000000000000000000000000000000000000000000000000000008152600401612a9b906152b5565b60405180910390fd5b612aad816130ea565b50565b505050505050565b612ad78473ffffffffffffffffffffffffffffffffffffffff16612ff9565b15612c97578373ffffffffffffffffffffffffffffffffffffffff1663bc197c8187878686866040518663ffffffff1660e01b8152600401612b1d95949392919061532a565b602060405180830381600087803b158015612b3757600080fd5b505af1925050508015612b6857506040513d601f19601f82011682018060405250810190612b6591906153a7565b60015b612c0e57612b746153e1565b806308c379a01415612bd15750612b89615403565b80612b945750612bd3565b806040517f08c379a0000000000000000000000000000000000000000000000000000000008152600401612bc8919061369b565b60405180910390fd5b505b6040517f08c379a0000000000000000000000000000000000000000000000000000000008152600401612c059061550b565b60405180910390fd5b63bc197c8160e01b7bffffffffffffffffffffffffffffffffffffffffffffffffffffffff1916817bffffffffffffffffffffffffffffffffffffffffffffffffffffffff191614612c95576040517f08c379a0000000000000000000000000000000000000000000000000000000008152600401612c8c9061559d565b60405180910390fd5b505b505050505050565b6000819050919050565b6000819050919050565b612cbc81612ff9565b612cfb576040517f08c379a0000000000000000000000000000000000000000000000000000000008152600401612cf29061562f565b60405180910390fd5b80612d287f360894a13ba1a3210667c828492db98dca3e2076cc3735a920a3ca505d382bbc60001b612c9f565b60000160006101000a81548173ffffffffffffffffffffffffffffffffffffffff021916908373ffffffffffffffffffffffffffffffffffffffff16021790555050565b612d7583613145565b600082511180612d825750805b15612d9357612d918383613194565b505b505050565b60606000600167ffffffffffffffff811115612db757612db66136c2565b5b604051908082528060200260200182016040528015612de55781602001602082028036833780820191505090505b5090508281600081518110612dfd57612dfc61466e565b5b60200260200101818152505080915050919050565b612e318473ffffffffffffffffffffffffffffffffffffffff16612ff9565b15612ff1578373ffffffffffffffffffffffffffffffffffffffff1663f23a6e6187878686866040518663ffffffff1660e01b8152600401612e7795949392919061564f565b602060405180830381600087803b158015612e9157600080fd5b505af1925050508015612ec257506040513d601f19601f82011682018060405250810190612ebf91906153a7565b60015b612f6857612ece6153e1565b806308c379a01415612f2b5750612ee3615403565b80612eee5750612f2d565b806040517f08c379a0000000000000000000000000000000000000000000000000000000008152600401612f22919061369b565b60405180910390fd5b505b6040517f08c379a0000000000000000000000000000000000000000000000000000000008152600401612f5f9061550b565b60405180910390fd5b63f23a6e6160e01b7bffffffffffffffffffffffffffffffffffffffffffffffffffffffff1916817bffffffffffffffffffffffffffffffffffffffffffffffffffffffff191614612fef576040517f08c379a0000000000000000000000000000000000000000000000000000000008152600401612fe69061559d565b60405180910390fd5b505b505050505050565b6000808273ffffffffffffffffffffffffffffffffffffffff163b119050919050565b600060019054906101000a900460ff1661306b576040517f08c379a0000000000000000000000000000000000000000000000000000000008152600401613062906152b5565b60405180910390fd5b600061012d60006101000a81548160ff021916908315150217905550565b600060019054906101000a900460ff166130d8576040517f08c379a00000000000000000000000000000000000000000000000000000000081526004016130cf906152b5565b60405180910390fd5b6130e86130e3611978565b6121ac565b565b600060019054906101000a900460ff16613139576040517f08c379a0000000000000000000000000000000000000000000000000000000008152600401613130906152b5565b60405180910390fd5b61314281612586565b50565b61314e81612cb3565b8073ffffffffffffffffffffffffffffffffffffffff167fbc7cd75a20ee27fd9adebab32041f755214dbc6bffa90cc0225b39da2e5c2d3b60405160405180910390a250565b606061319f83612ff9565b6131de576040517f08c379a00000000000000000000000000000000000000000000000000000000081526004016131d59061571b565b60405180910390fd5b6000808473ffffffffffffffffffffffffffffffffffffffff1684604051613206919061576c565b600060405180830381855af49150503d8060008114613241576040519150601f19603f3d011682016040523d82523d6000602084013e613246565b606091505b509150915061326e828260405180606001604052806027815260200161578460279139613278565b9250505092915050565b60608315613288578290506132d8565b60008351111561329b5782518084602001fd5b816040517f08c379a00000000000000000000000000000000000000000000000000000000081526004016132cf919061369b565b60405180910390fd5b9392505050565b8280546132eb906140f9565b90600052602060002090601f01602090048101928261330d5760008555613354565b82601f1061332657803560ff1916838001178555613354565b82800160010185558215613354579182015b82811115613353578235825591602001919060010190613338565b5b50905061336191906133eb565b5090565b828054613371906140f9565b90600052602060002090601f01602090048101928261339357600085556133da565b82601f106133ac57805160ff19168380011785556133da565b828001600101855582156133da579182015b828111156133d95782518255916020019190600101906133be565b5b5090506133e791906133eb565b5090565b5b808211156134045760008160009055506001016133ec565b5090565b6000604051905090565b600080fd5b600080fd5b600073ffffffffffffffffffffffffffffffffffffffff82169050919050565b60006134478261341c565b9050919050565b6134578161343c565b811461346257600080fd5b50565b6000813590506134748161344e565b92915050565b6000819050919050565b61348d8161347a565b811461349857600080fd5b50565b6000813590506134aa81613484565b92915050565b600080604083850312156134c7576134c6613412565b5b60006134d585828601613465565b92505060206134e68582860161349b565b9150509250929050565b6134f98161347a565b82525050565b600060208201905061351460008301846134f0565b92915050565b60007fffffffff0000000000000000000000000000000000000000000000000000000082169050919050565b61354f8161351a565b811461355a57600080fd5b50565b60008135905061356c81613546565b92915050565b60006020828403121561358857613587613412565b5b60006135968482850161355d565b91505092915050565b60008115159050919050565b6135b48161359f565b82525050565b60006020820190506135cf60008301846135ab565b92915050565b6000602082840312156135eb576135ea613412565b5b60006135f98482850161349b565b91505092915050565b600081519050919050565b600082825260208201905092915050565b60005b8381101561363c578082015181840152602081019050613621565b8381111561364b576000848401525b50505050565b6000601f19601f8301169050919050565b600061366d82613602565b613677818561360d565b935061368781856020860161361e565b61369081613651565b840191505092915050565b600060208201905081810360008301526136b58184613662565b905092915050565b600080fd5b7f4e487b7100000000000000000000000000000000000000000000000000000000600052604160045260246000fd5b6136fa82613651565b810181811067ffffffffffffffff82111715613719576137186136c2565b5b80604052505050565b600061372c613408565b905061373882826136f1565b919050565b600067ffffffffffffffff821115613758576137576136c2565b5b602082029050602081019050919050565b600080fd5b600061378161377c8461373d565b613722565b905080838252602082019050602084028301858111156137a4576137a3613769565b5b835b818110156137cd57806137b9888261349b565b8452602084019350506020810190506137a6565b5050509392505050565b600082601f8301126137ec576137eb6136bd565b5b81356137fc84826020860161376e565b91505092915050565b600080fd5b600067ffffffffffffffff821115613825576138246136c2565b5b61382e82613651565b9050602081019050919050565b82818337600083830152505050565b600061385d6138588461380a565b613722565b90508281526020810184848401111561387957613878613805565b5b61388484828561383b565b509392505050565b600082601f8301126138a1576138a06136bd565b5b81356138b184826020860161384a565b91505092915050565b600080600080600060a086880312156138d6576138d5613412565b5b60006138e488828901613465565b95505060206138f588828901613465565b945050604086013567ffffffffffffffff81111561391657613915613417565b5b613922888289016137d7565b935050606086013567ffffffffffffffff81111561394357613942613417565b5b61394f888289016137d7565b925050608086013567ffffffffffffffff8111156139705761396f613417565b5b61397c8882890161388c565b9150509295509295909350565b60006020828403121561399f5761399e613412565b5b60006139ad84828501613465565b91505092915050565b600067ffffffffffffffff8211156139d1576139d06136c2565b5b602082029050602081019050919050565b60006139f56139f0846139b6565b613722565b90508083825260208201905060208402830185811115613a1857613a17613769565b5b835b81811015613a415780613a2d8882613465565b845260208401935050602081019050613a1a565b5050509392505050565b600082601f830112613a6057613a5f6136bd565b5b8135613a708482602086016139e2565b91505092915050565b60008060408385031215613a9057613a8f613412565b5b600083013567ffffffffffffffff811115613aae57613aad613417565b5b613aba85828601613a4b565b925050602083013567ffffffffffffffff811115613adb57613ada613417565b5b613ae7858286016137d7565b9150509250929050565b600081519050919050565b600082825260208201905092915050565b6000819050602082019050919050565b613b268161347a565b82525050565b6000613b388383613b1d565b60208301905092915050565b6000602082019050919050565b6000613b5c82613af1565b613b668185613afc565b9350613b7183613b0d565b8060005b83811015613ba2578151613b898882613b2c565b9750613b9483613b44565b925050600181019050613b75565b5085935050505092915050565b60006020820190508181036000830152613bc98184613b51565b905092915050565b60008060408385031215613be857613be7613412565b5b6000613bf685828601613465565b925050602083013567ffffffffffffffff811115613c1757613c16613417565b5b613c238582860161388c565b9150509250929050565b6000819050919050565b613c4081613c2d565b82525050565b6000602082019050613c5b6000830184613c37565b92915050565b613c6a8161359f565b8114613c7557600080fd5b50565b600081359050613c8781613c61565b92915050565b60008060408385031215613ca457613ca3613412565b5b6000613cb28582860161349b565b9250506020613cc385828601613c78565b9150509250929050565b613cd68161343c565b82525050565b6000602082019050613cf16000830184613ccd565b92915050565b600067ffffffffffffffff821115613d1257613d116136c2565b5b613d1b82613651565b9050602081019050919050565b6000613d3b613d3684613cf7565b613722565b905082815260208101848484011115613d5757613d56613805565b5b613d6284828561383b565b509392505050565b600082601f830112613d7f57613d7e6136bd565b5b8135613d8f848260208601613d28565b91505092915050565b600060208284031215613dae57613dad613412565b5b600082013567ffffffffffffffff811115613dcc57613dcb613417565b5b613dd884828501613d6a565b91505092915050565b60008060408385031215613df857613df7613412565b5b6000613e0685828601613465565b9250506020613e1785828601613c78565b9150509250929050565b60008060408385031215613e3857613e37613412565b5b6000613e4685828601613465565b9250506020613e5785828601613465565b9150509250929050565b600080600080600060a08688031215613e7d57613e7c613412565b5b6000613e8b88828901613465565b9550506020613e9c88828901613465565b9450506040613ead8882890161349b565b9350506060613ebe8882890161349b565b925050608086013567ffffffffffffffff811115613edf57613ede613417565b5b613eeb8882890161388c565b9150509295509295909350565b600080fd5b60008083601f840112613f1357613f126136bd565b5b8235905067ffffffffffffffff811115613f3057613f2f613ef8565b5b602083019150836001820283011115613f4c57613f4b613769565b5b9250929050565b600080600060408486031215613f6c57613f6b613412565b5b6000613f7a86828701613465565b935050602084013567ffffffffffffffff811115613f9b57613f9a613417565b5b613fa786828701613efd565b92509250509250925092565b7f455243313135353a2062616c616e636520717565727920666f7220746865207a60008201527f65726f2061646472657373000000000000000000000000000000000000000000602082015250565b600061400f602b8361360d565b915061401a82613fb3565b604082019050919050565b6000602082019050818103600083015261403e81614002565b9050919050565b7f4e487b7100000000000000000000000000000000000000000000000000000000600052601160045260246000fd5b600061407f8261347a565b915061408a8361347a565b9250827fffffffffffffffffffffffffffffffffffffffffffffffffffffffffffffffff038211156140bf576140be614045565b5b828201905092915050565b7f4e487b7100000000000000000000000000000000000000000000000000000000600052602260045260246000fd5b6000600282049050600182168061411157607f821691505b60208210811415614125576141246140ca565b5b50919050565b600081905092915050565b60008190508160005260206000209050919050565b60008154614158816140f9565b614162818661412b565b9450600182166000811461417d576001811461418e576141c1565b60ff198316865281860193506141c1565b61419785614136565b60005b838110156141b95781548189015260018201915060208101905061419a565b838801955050505b50505092915050565b60006141d582613602565b6141df818561412b565b93506141ef81856020860161361e565b80840191505092915050565b7f2e6a736f6e000000000000000000000000000000000000000000000000000000600082015250565b600061423160058361412b565b915061423c826141fb565b600582019050919050565b6000614253828561414b565b915061425f82846141ca565b915061426a82614224565b91508190509392505050565b7f4f776e61626c653a2063616c6c6572206973206e6f7420746865206f776e6572600082015250565b60006142ac60208361360d565b91506142b782614276565b602082019050919050565b600060208201905081810360008301526142db8161429f565b9050919050565b7f43656c744d696e7465723a20696e76616c696420616d6f756e74000000000000600082015250565b6000614318601a8361360d565b9150614323826142e2565b602082019050919050565b600060208201905081810360008301526143478161430b565b9050919050565b7f43656c744d696e7465723a20696e76616c696420776974686472617720616d6f60008201527f756e740000000000000000000000000000000000000000000000000000000000602082015250565b60006143aa60238361360d565b91506143b58261434e565b604082019050919050565b600060208201905081810360008301526143d98161439d565b9050919050565b600081905092915050565b50565b60006143fb6000836143e0565b9150614406826143eb565b600082019050919050565b600061441c826143ee565b9150819050919050565b7f455243313135353a207472616e736665722063616c6c6572206973206e6f742060008201527f6f776e6572206e6f7220617070726f7665640000000000000000000000000000602082015250565b600061448260328361360d565b915061448d82614426565b604082019050919050565b600060208201905081810360008301526144b181614475565b9050919050565b7f46756e6374696f6e206d7573742062652063616c6c6564207468726f7567682060008201527f64656c656761746563616c6c0000000000000000000000000000000000000000602082015250565b6000614514602c8361360d565b915061451f826144b8565b604082019050919050565b6000602082019050818103600083015261454381614507565b9050919050565b7f46756e6374696f6e206d7573742062652063616c6c6564207468726f7567682060008201527f6163746976652070726f78790000000000000000000000000000000000000000602082015250565b60006145a6602c8361360d565b91506145b18261454a565b604082019050919050565b600060208201905081810360008301526145d581614599565b9050919050565b7f455243313135353a206163636f756e747320616e6420696473206c656e67746860008201527f206d69736d617463680000000000000000000000000000000000000000000000602082015250565b600061463860298361360d565b9150614643826145dc565b604082019050919050565b600060208201905081810360008301526146678161462b565b9050919050565b7f4e487b7100000000000000000000000000000000000000000000000000000000600052603260045260246000fd5b60006146a88261347a565b91507fffffffffffffffffffffffffffffffffffffffffffffffffffffffffffffffff8214156146db576146da614045565b5b600182019050919050565b7f555550535570677261646561626c653a206d757374206e6f742062652063616c60008201527f6c6564207468726f7567682064656c656761746563616c6c0000000000000000602082015250565b600061474260388361360d565b915061474d826146e6565b604082019050919050565b6000602082019050818103600083015261477181614735565b9050919050565b7f5061757361626c653a2070617573656400000000000000000000000000000000600082015250565b60006147ae60108361360d565b91506147b982614778565b602082019050919050565b600060208201905081810360008301526147dd816147a1565b9050919050565b60006147ef8261347a565b91506147fa8361347a565b9250817fffffffffffffffffffffffffffffffffffffffffffffffffffffffffffffffff048311821515161561483357614832614045565b5b828202905092915050565b7f43656c744d696e7465723a206e6f7420656e6f7567682066756e640000000000600082015250565b6000614874601b8361360d565b915061487f8261483e565b602082019050919050565b600060208201905081810360008301526148a381614867565b9050919050565b7f43656c744d696e7465723a206578636363656420616d6f756e74000000000000600082015250565b60006148e0601a8361360d565b91506148eb826148aa565b602082019050919050565b6000602082019050818103600083015261490f816148d3565b9050919050565b7f455243313135353a2063616c6c6572206973206e6f74206f776e6572206e6f7260008201527f20617070726f7665640000000000000000000000000000000000000000000000602082015250565b600061497260298361360d565b915061497d82614916565b604082019050919050565b600060208201905081810360008301526149a181614965565b9050919050565b7f4f776e61626c653a206e6577206f776e657220697320746865207a65726f206160008201527f6464726573730000000000000000000000000000000000000000000000000000602082015250565b6000614a0460268361360d565b9150614a0f826149a8565b604082019050919050565b60006020820190508181036000830152614a33816149f7565b9050919050565b7f496e697469616c697a61626c653a20636f6e747261637420697320616c72656160008201527f647920696e697469616c697a6564000000000000000000000000000000000000602082015250565b6000614a96602e8361360d565b9150614aa182614a3a565b604082019050919050565b60006020820190508181036000830152614ac581614a89565b9050919050565b7f4e487b7100000000000000000000000000000000000000000000000000000000600052601260045260246000fd5b6000614b068261347a565b9150614b118361347a565b925082614b2157614b20614acc565b5b828204905092915050565b6000614b378261347a565b9150614b428361347a565b925082821015614b5557614b54614045565b5b828203905092915050565b6000614b6b8261347a565b9150614b768361347a565b925082614b8657614b85614acc565b5b828206905092915050565b7f455243313135353a2069647320616e6420616d6f756e7473206c656e6774682060008201527f6d69736d61746368000000000000000000000000000000000000000000000000602082015250565b6000614bed60288361360d565b9150614bf882614b91565b604082019050919050565b60006020820190508181036000830152614c1c81614be0565b9050919050565b7f455243313135353a207472616e7366657220746f20746865207a65726f20616460008201527f6472657373000000000000000000000000000000000000000000000000000000602082015250565b6000614c7f60258361360d565b9150614c8a82614c23565b604082019050919050565b60006020820190508181036000830152614cae81614c72565b9050919050565b7f455243313135353a20696e73756666696369656e742062616c616e636520666f60008201527f72207472616e7366657200000000000000000000000000000000000000000000602082015250565b6000614d11602a8361360d565b9150614d1c82614cb5565b604082019050919050565b60006020820190508181036000830152614d4081614d04565b9050919050565b60006040820190508181036000830152614d618185613b51565b90508181036020830152614d758184613b51565b90509392505050565b614d8781613c2d565b8114614d9257600080fd5b50565b600081519050614da481614d7e565b92915050565b600060208284031215614dc057614dbf613412565b5b6000614dce84828501614d95565b91505092915050565b7f45524331393637557067726164653a206e657720696d706c656d656e7461746960008201527f6f6e206973206e6f742055555053000000000000000000000000000000000000602082015250565b6000614e33602e8361360d565b9150614e3e82614dd7565b604082019050919050565b60006020820190508181036000830152614e6281614e26565b9050919050565b7f45524331393637557067726164653a20756e737570706f727465642070726f7860008201527f6961626c65555549440000000000000000000000000000000000000000000000602082015250565b6000614ec560298361360d565b9150614ed082614e69565b604082019050919050565b60006020820190508181036000830152614ef481614eb8565b9050919050565b7f5061757361626c653a206e6f7420706175736564000000000000000000000000600082015250565b6000614f3160148361360d565b9150614f3c82614efb565b602082019050919050565b60006020820190508181036000830152614f6081614f24565b9050919050565b7f455243313135353a206275726e2066726f6d20746865207a65726f206164647260008201527f6573730000000000000000000000000000000000000000000000000000000000602082015250565b6000614fc360238361360d565b9150614fce82614f67565b604082019050919050565b60006020820190508181036000830152614ff281614fb6565b9050919050565b7f455243313135353a206275726e20616d6f756e7420657863656564732062616c60008201527f616e636500000000000000000000000000000000000000000000000000000000602082015250565b600061505560248361360d565b915061506082614ff9565b604082019050919050565b6000602082019050818103600083015261508481615048565b9050919050565b60006040820190506150a060008301856134f0565b6150ad60208301846134f0565b9392505050565b7f455243313135353a206d696e7420746f20746865207a65726f2061646472657360008201527f7300000000000000000000000000000000000000000000000000000000000000602082015250565b600061511060218361360d565b915061511b826150b4565b604082019050919050565b6000602082019050818103600083015261513f81615103565b9050919050565b600060408201905061515b6000830185613ccd565b61516860208301846134f0565b9392505050565b60008151905061517e81613c61565b92915050565b60006020828403121561519a57615199613412565b5b60006151a88482850161516f565b91505092915050565b7f455243313135353a2073657474696e6720617070726f76616c2073746174757360008201527f20666f722073656c660000000000000000000000000000000000000000000000602082015250565b600061520d60298361360d565b9150615218826151b1565b604082019050919050565b6000602082019050818103600083015261523c81615200565b9050919050565b7f496e697469616c697a61626c653a20636f6e7472616374206973206e6f74206960008201527f6e697469616c697a696e67000000000000000000000000000000000000000000602082015250565b600061529f602b8361360d565b91506152aa82615243565b604082019050919050565b600060208201905081810360008301526152ce81615292565b9050919050565b600081519050919050565b600082825260208201905092915050565b60006152fc826152d5565b61530681856152e0565b935061531681856020860161361e565b61531f81613651565b840191505092915050565b600060a08201905061533f6000830188613ccd565b61534c6020830187613ccd565b818103604083015261535e8186613b51565b905081810360608301526153728185613b51565b9050818103608083015261538681846152f1565b90509695505050505050565b6000815190506153a181613546565b92915050565b6000602082840312156153bd576153bc613412565b5b60006153cb84828501615392565b91505092915050565b60008160e01c9050919050565b600060033d11156154005760046000803e6153fd6000516153d4565b90505b90565b600060443d101561541357615496565b61541b613408565b60043d036004823e80513d602482011167ffffffffffffffff82111715615443575050615496565b808201805167ffffffffffffffff8111156154615750505050615496565b80602083010160043d03850181111561547e575050505050615496565b61548d826020018501866136f1565b82955050505050505b90565b7f455243313135353a207472616e7366657220746f206e6f6e204552433131353560008201527f526563656976657220696d706c656d656e746572000000000000000000000000602082015250565b60006154f560348361360d565b915061550082615499565b604082019050919050565b60006020820190508181036000830152615524816154e8565b9050919050565b7f455243313135353a204552433131353552656365697665722072656a6563746560008201527f6420746f6b656e73000000000000000000000000000000000000000000000000602082015250565b600061558760288361360d565b91506155928261552b565b604082019050919050565b600060208201905081810360008301526155b68161557a565b9050919050565b7f455243313936373a206e657720696d706c656d656e746174696f6e206973206e60008201527f6f74206120636f6e747261637400000000000000000000000000000000000000602082015250565b6000615619602d8361360d565b9150615624826155bd565b604082019050919050565b600060208201905081810360008301526156488161560c565b9050919050565b600060a0820190506156646000830188613ccd565b6156716020830187613ccd565b61567e60408301866134f0565b61568b60608301856134f0565b818103608083015261569d81846152f1565b90509695505050505050565b7f416464726573733a2064656c65676174652063616c6c20746f206e6f6e2d636f60008201527f6e74726163740000000000000000000000000000000000000000000000000000602082015250565b600061570560268361360d565b9150615710826156a9565b604082019050919050565b60006020820190508181036000830152615734816156f8565b9050919050565b6000615746826152d5565b61575081856143e0565b935061576081856020860161361e565b80840191505092915050565b6000615778828461573b565b91508190509291505056fe416464726573733a206c6f772d6c6576656c2064656c65676174652063616c6c206661696c6564a26469706673582212204753e32385e2f21a3a1c99da88d0332b2492eb6f98a75806f4a430947c749e1864736f6c63430008090033",
  "linkReferences": {},
  "deployedLinkReferences": {}
}