{
  "_format": "hh-sol-artifact-1",
  "contractName": "GreenFalcoin",
  "sourceName": "contracts/GreenFalcoin.sol",
  "abi": [
    {
      "anonymous": false,
      "inputs": [
        {
          "indexed": false,
          "internalType": "address",
          "name": "previousAdmin",
          "type": "address"
        },
        {
          "indexed": false,
          "internalType": "address",
          "name": "newAdmin",
          "type": "address"
        }
      ],
      "name": "AdminChanged",
      "type": "event"
    },
    {
      "anonymous": false,
      "inputs": [
        {
          "indexed": true,
          "internalType": "address",
          "name": "owner",
          "type": "address"
        },
        {
          "indexed": true,
          "internalType": "address",
          "name": "spender",
          "type": "address"
        },
        {
          "indexed": false,
          "internalType": "uint256",
          "name": "value",
          "type": "uint256"
        }
      ],
      "name": "Approval",
      "type": "event"
    },
    {
      "anonymous": false,
      "inputs": [
        {
          "indexed": true,
          "internalType": "address",
          "name": "beacon",
          "type": "address"
        }
      ],
      "name": "BeaconUpgraded",
      "type": "event"
    },
    {
      "anonymous": false,
      "inputs": [
        {
          "indexed": true,
          "internalType": "address",
          "name": "previousOwner",
          "type": "address"
        },
        {
          "indexed": true,
          "internalType": "address",
          "name": "newOwner",
          "type": "address"
        }
      ],
      "name": "OwnershipTransferred",
      "type": "event"
    },
    {
      "anonymous": false,
      "inputs": [
        {
          "indexed": false,
          "internalType": "address",
          "name": "account",
          "type": "address"
        }
      ],
      "name": "Paused",
      "type": "event"
    },
    {
      "anonymous": false,
      "inputs": [
        {
          "indexed": true,
          "internalType": "address",
          "name": "from",
          "type": "address"
        },
        {
          "indexed": true,
          "internalType": "address",
          "name": "to",
          "type": "address"
        },
        {
          "indexed": false,
          "internalType": "uint256",
          "name": "value",
          "type": "uint256"
        }
      ],
      "name": "Transfer",
      "type": "event"
    },
    {
      "anonymous": false,
      "inputs": [
        {
          "indexed": false,
          "internalType": "address",
          "name": "account",
          "type": "address"
        }
      ],
      "name": "Unpaused",
      "type": "event"
    },
    {
      "anonymous": false,
      "inputs": [
        {
          "indexed": true,
          "internalType": "address",
          "name": "implementation",
          "type": "address"
        }
      ],
      "name": "Upgraded",
      "type": "event"
    },
    {
      "inputs": [
        {
          "internalType": "address",
          "name": "owner",
          "type": "address"
        },
        {
          "internalType": "address",
          "name": "spender",
          "type": "address"
        }
      ],
      "name": "allowance",
      "outputs": [
        {
          "internalType": "uint256",
          "name": "",
          "type": "uint256"
        }
      ],
      "stateMutability": "view",
      "type": "function"
    },
    {
      "inputs": [
        {
          "internalType": "address",
          "name": "spender",
          "type": "address"
        },
        {
          "internalType": "uint256",
          "name": "amount",
          "type": "uint256"
        }
      ],
      "name": "approve",
      "outputs": [
        {
          "internalType": "bool",
          "name": "",
          "type": "bool"
        }
      ],
      "stateMutability": "nonpayable",
      "type": "function"
    },
    {
      "inputs": [
        {
          "internalType": "address",
          "name": "account",
          "type": "address"
        }
      ],
      "name": "balanceOf",
      "outputs": [
        {
          "internalType": "uint256",
          "name": "",
          "type": "uint256"
        }
      ],
      "stateMutability": "view",
      "type": "function"
    },
    {
      "inputs": [],
      "name": "decimals",
      "outputs": [
        {
          "internalType": "uint8",
          "name": "",
          "type": "uint8"
        }
      ],
      "stateMutability": "view",
      "type": "function"
    },
    {
      "inputs": [
        {
          "internalType": "address",
          "name": "spender",
          "type": "address"
        },
        {
          "internalType": "uint256",
          "name": "subtractedValue",
          "type": "uint256"
        }
      ],
      "name": "decreaseAllowance",
      "outputs": [
        {
          "internalType": "bool",
          "name": "",
          "type": "bool"
        }
      ],
      "stateMutability": "nonpayable",
      "type": "function"
    },
    {
      "inputs": [
        {
          "internalType": "address",
          "name": "spender",
          "type": "address"
        },
        {
          "internalType": "uint256",
          "name": "addedValue",
          "type": "uint256"
        }
      ],
      "name": "increaseAllowance",
      "outputs": [
        {
          "internalType": "bool",
          "name": "",
          "type": "bool"
        }
      ],
      "stateMutability": "nonpayable",
      "type": "function"
    },
    {
      "inputs": [],
      "name": "initialize",
      "outputs": [],
      "stateMutability": "nonpayable",
      "type": "function"
    },
    {
      "inputs": [
        {
          "internalType": "address",
          "name": "to",
          "type": "address"
        },
        {
          "internalType": "uint256",
          "name": "amount",
          "type": "uint256"
        }
      ],
      "name": "mint",
      "outputs": [],
      "stateMutability": "nonpayable",
      "type": "function"
    },
    {
      "inputs": [],
      "name": "name",
      "outputs": [
        {
          "internalType": "string",
          "name": "",
          "type": "string"
        }
      ],
      "stateMutability": "view",
      "type": "function"
    },
    {
      "inputs": [],
      "name": "owner",
      "outputs": [
        {
          "internalType": "address",
          "name": "",
          "type": "address"
        }
      ],
      "stateMutability": "view",
      "type": "function"
    },
    {
      "inputs": [],
      "name": "pause",
      "outputs": [],
      "stateMutability": "nonpayable",
      "type": "function"
    },
    {
      "inputs": [],
      "name": "paused",
      "outputs": [
        {
          "internalType": "bool",
          "name": "",
          "type": "bool"
        }
      ],
      "stateMutability": "view",
      "type": "function"
    },
    {
      "inputs": [],
      "name": "proxiableUUID",
      "outputs": [
        {
          "internalType": "bytes32",
          "name": "",
          "type": "bytes32"
        }
      ],
      "stateMutability": "view",
      "type": "function"
    },
    {
      "inputs": [],
      "name": "renounceOwnership",
      "outputs": [],
      "stateMutability": "nonpayable",
      "type": "function"
    },
    {
      "inputs": [],
      "name": "symbol",
      "outputs": [
        {
          "internalType": "string",
          "name": "",
          "type": "string"
        }
      ],
      "stateMutability": "view",
      "type": "function"
    },
    {
      "inputs": [],
      "name": "totalSupply",
      "outputs": [
        {
          "internalType": "uint256",
          "name": "",
          "type": "uint256"
        }
      ],
      "stateMutability": "view",
      "type": "function"
    },
    {
      "inputs": [
        {
          "internalType": "address",
          "name": "to",
          "type": "address"
        },
        {
          "internalType": "uint256",
          "name": "amount",
          "type": "uint256"
        }
      ],
      "name": "transfer",
      "outputs": [
        {
          "internalType": "bool",
          "name": "",
          "type": "bool"
        }
      ],
      "stateMutability": "nonpayable",
      "type": "function"
    },
    {
      "inputs": [
        {
          "internalType": "address",
          "name": "from",
          "type": "address"
        },
        {
          "internalType": "address",
          "name": "to",
          "type": "address"
        },
        {
          "internalType": "uint256",
          "name": "amount",
          "type": "uint256"
        }
      ],
      "name": "transferFrom",
      "outputs": [
        {
          "internalType": "bool",
          "name": "",
          "type": "bool"
        }
      ],
      "stateMutability": "nonpayable",
      "type": "function"
    },
    {
      "inputs": [
        {
          "internalType": "address",
          "name": "newOwner",
          "type": "address"
        }
      ],
      "name": "transferOwnership",
      "outputs": [],
      "stateMutability": "nonpayable",
      "type": "function"
    },
    {
      "inputs": [],
      "name": "unpause",
      "outputs": [],
      "stateMutability": "nonpayable",
      "type": "function"
    },
    {
      "inputs": [
        {
          "internalType": "address",
          "name": "newImplementation",
          "type": "address"
        }
      ],
      "name": "upgradeTo",
      "outputs": [],
      "stateMutability": "nonpayable",
      "type": "function"
    },
    {
      "inputs": [
        {
          "internalType": "address",
          "name": "newImplementation",
          "type": "address"
        },
        {
          "internalType": "bytes",
          "name": "data",
          "type": "bytes"
        }
      ],
      "name": "upgradeToAndCall",
      "outputs": [],
      "stateMutability": "payable",
      "type": "function"
    }
  ],
  "bytecode": "0x60a06040523073ffffffffffffffffffffffffffffffffffffffff1660809073ffffffffffffffffffffffffffffffffffffffff1681525034801561004357600080fd5b5060805161342d61007b600039600081816105fe0152818161068d0152818161098901528181610a180152610ac8015261342d6000f3fe6080604052600436106101355760003560e01c80635c975abb116100ab5780638da5cb5b1161006f5780638da5cb5b146103cf57806395d89b41146103fa578063a457c2d714610425578063a9059cbb14610462578063dd62ed3e1461049f578063f2fde38b146104dc57610135565b80635c975abb1461032257806370a082311461034d578063715018a61461038a5780638129fc1c146103a15780638456cb59146103b857610135565b80633659cfe6116100fd5780633659cfe614610235578063395093511461025e5780633f4ba83a1461029b57806340c10f19146102b25780634f1ef286146102db57806352d1902d146102f757610135565b806306fdde031461013a578063095ea7b31461016557806318160ddd146101a257806323b872dd146101cd578063313ce5671461020a575b600080fd5b34801561014657600080fd5b5061014f610505565b60405161015c91906122a7565b60405180910390f35b34801561017157600080fd5b5061018c60048036038101906101879190612371565b610597565b60405161019991906123cc565b60405180910390f35b3480156101ae57600080fd5b506101b76105ba565b6040516101c491906123f6565b60405180910390f35b3480156101d957600080fd5b506101f460048036038101906101ef9190612411565b6105c4565b60405161020191906123cc565b60405180910390f35b34801561021657600080fd5b5061021f6105f3565b60405161022c9190612480565b60405180910390f35b34801561024157600080fd5b5061025c6004803603810190610257919061249b565b6105fc565b005b34801561026a57600080fd5b5061028560048036038101906102809190612371565b610785565b60405161029291906123cc565b60405180910390f35b3480156102a757600080fd5b506102b061082f565b005b3480156102be57600080fd5b506102d960048036038101906102d49190612371565b6108b5565b005b6102f560048036038101906102f091906125fd565b610987565b005b34801561030357600080fd5b5061030c610ac4565b6040516103199190612672565b60405180910390f35b34801561032e57600080fd5b50610337610b7d565b60405161034491906123cc565b60405180910390f35b34801561035957600080fd5b50610374600480360381019061036f919061249b565b610b94565b60405161038191906123f6565b60405180910390f35b34801561039657600080fd5b5061039f610bdd565b005b3480156103ad57600080fd5b506103b6610c65565b005b3480156103c457600080fd5b506103cd610dcd565b005b3480156103db57600080fd5b506103e4610e53565b6040516103f1919061269c565b60405180910390f35b34801561040657600080fd5b5061040f610e7d565b60405161041c91906122a7565b60405180910390f35b34801561043157600080fd5b5061044c60048036038101906104479190612371565b610f0f565b60405161045991906123cc565b60405180910390f35b34801561046e57600080fd5b5061048960048036038101906104849190612371565b610ff9565b60405161049691906123cc565b60405180910390f35b3480156104ab57600080fd5b506104c660048036038101906104c191906126b7565b61101c565b6040516104d391906123f6565b60405180910390f35b3480156104e857600080fd5b5061050360048036038101906104fe919061249b565b6110a3565b005b60606036805461051490612726565b80601f016020809104026020016040519081016040528092919081815260200182805461054090612726565b801561058d5780601f106105625761010080835404028352916020019161058d565b820191906000526020600020905b81548152906001019060200180831161057057829003601f168201915b5050505050905090565b6000806105a261119b565b90506105af8185856111a3565b600191505092915050565b6000603554905090565b6000806105cf61119b565b90506105dc85828561136e565b6105e78585856113fa565b60019150509392505050565b60006012905090565b7f000000000000000000000000000000000000000000000000000000000000000073ffffffffffffffffffffffffffffffffffffffff163073ffffffffffffffffffffffffffffffffffffffff16141561068b576040517f08c379a0000000000000000000000000000000000000000000000000000000008152600401610682906127ca565b60405180910390fd5b7f000000000000000000000000000000000000000000000000000000000000000073ffffffffffffffffffffffffffffffffffffffff166106ca61167e565b73ffffffffffffffffffffffffffffffffffffffff1614610720576040517f08c379a00000000000000000000000000000000000000000000000000000000081526004016107179061285c565b60405180910390fd5b610729816116d5565b61078281600067ffffffffffffffff811115610748576107476124d2565b5b6040519080825280601f01601f19166020018201604052801561077a5781602001600182028036833780820191505090505b506000611754565b50565b60008061079061119b565b9050610824818585603460008673ffffffffffffffffffffffffffffffffffffffff1673ffffffffffffffffffffffffffffffffffffffff16815260200190815260200160002060008973ffffffffffffffffffffffffffffffffffffffff1673ffffffffffffffffffffffffffffffffffffffff1681526020019081526020016000205461081f91906128ab565b6111a3565b600191505092915050565b61083761119b565b73ffffffffffffffffffffffffffffffffffffffff16610855610e53565b73ffffffffffffffffffffffffffffffffffffffff16146108ab576040517f08c379a00000000000000000000000000000000000000000000000000000000081526004016108a29061294d565b60405180910390fd5b6108b36118d1565b565b6108bd610b7d565b156108fd576040517f08c379a00000000000000000000000000000000000000000000000000000000081526004016108f4906129b9565b60405180910390fd5b61090561119b565b73ffffffffffffffffffffffffffffffffffffffff16610923610e53565b73ffffffffffffffffffffffffffffffffffffffff1614610979576040517f08c379a00000000000000000000000000000000000000000000000000000000081526004016109709061294d565b60405180910390fd5b6109838282611973565b5050565b7f000000000000000000000000000000000000000000000000000000000000000073ffffffffffffffffffffffffffffffffffffffff163073ffffffffffffffffffffffffffffffffffffffff161415610a16576040517f08c379a0000000000000000000000000000000000000000000000000000000008152600401610a0d906127ca565b60405180910390fd5b7f000000000000000000000000000000000000000000000000000000000000000073ffffffffffffffffffffffffffffffffffffffff16610a5561167e565b73ffffffffffffffffffffffffffffffffffffffff1614610aab576040517f08c379a0000000000000000000000000000000000000000000000000000000008152600401610aa29061285c565b60405180910390fd5b610ab4826116d5565b610ac082826001611754565b5050565b60007f000000000000000000000000000000000000000000000000000000000000000073ffffffffffffffffffffffffffffffffffffffff163073ffffffffffffffffffffffffffffffffffffffff1614610b54576040517f08c379a0000000000000000000000000000000000000000000000000000000008152600401610b4b90612a4b565b60405180910390fd5b7f360894a13ba1a3210667c828492db98dca3e2076cc3735a920a3ca505d382bbc60001b905090565b600060c960009054906101000a900460ff16905090565b6000603360008373ffffffffffffffffffffffffffffffffffffffff1673ffffffffffffffffffffffffffffffffffffffff168152602001908152602001600020549050919050565b610be561119b565b73ffffffffffffffffffffffffffffffffffffffff16610c03610e53565b73ffffffffffffffffffffffffffffffffffffffff1614610c59576040517f08c379a0000000000000000000000000000000000000000000000000000000008152600401610c509061294d565b60405180910390fd5b610c636000611ad4565b565b600060019054906101000a900460ff16610c8d5760008054906101000a900460ff1615610c96565b610c95611b9a565b5b610cd5576040517f08c379a0000000000000000000000000000000000000000000000000000000008152600401610ccc90612add565b60405180910390fd5b60008060019054906101000a900460ff161590508015610d25576001600060016101000a81548160ff02191690831515021790555060016000806101000a81548160ff0219169083151502179055505b610d2d611bab565b610d35611c04565b610da96040518060400160405280600c81526020017f477265656e46616c636f696e00000000000000000000000000000000000000008152506040518060400160405280600381526020017f46616c0000000000000000000000000000000000000000000000000000000000815250611c5d565b8015610dca5760008060016101000a81548160ff0219169083151502179055505b50565b610dd561119b565b73ffffffffffffffffffffffffffffffffffffffff16610df3610e53565b73ffffffffffffffffffffffffffffffffffffffff1614610e49576040517f08c379a0000000000000000000000000000000000000000000000000000000008152600401610e409061294d565b60405180910390fd5b610e51611cba565b565b600060fb60009054906101000a900473ffffffffffffffffffffffffffffffffffffffff16905090565b606060378054610e8c90612726565b80601f0160208091040260200160405190810160405280929190818152602001828054610eb890612726565b8015610f055780601f10610eda57610100808354040283529160200191610f05565b820191906000526020600020905b815481529060010190602001808311610ee857829003601f168201915b5050505050905090565b600080610f1a61119b565b90506000603460008373ffffffffffffffffffffffffffffffffffffffff1673ffffffffffffffffffffffffffffffffffffffff16815260200190815260200160002060008673ffffffffffffffffffffffffffffffffffffffff1673ffffffffffffffffffffffffffffffffffffffff16815260200190815260200160002054905083811015610fe0576040517f08c379a0000000000000000000000000000000000000000000000000000000008152600401610fd790612b6f565b60405180910390fd5b610fed82868684036111a3565b60019250505092915050565b60008061100461119b565b90506110118185856113fa565b600191505092915050565b6000603460008473ffffffffffffffffffffffffffffffffffffffff1673ffffffffffffffffffffffffffffffffffffffff16815260200190815260200160002060008373ffffffffffffffffffffffffffffffffffffffff1673ffffffffffffffffffffffffffffffffffffffff16815260200190815260200160002054905092915050565b6110ab61119b565b73ffffffffffffffffffffffffffffffffffffffff166110c9610e53565b73ffffffffffffffffffffffffffffffffffffffff161461111f576040517f08c379a00000000000000000000000000000000000000000000000000000000081526004016111169061294d565b60405180910390fd5b600073ffffffffffffffffffffffffffffffffffffffff168173ffffffffffffffffffffffffffffffffffffffff16141561118f576040517f08c379a000000000000000000000000000000000000000000000000000000000815260040161118690612c01565b60405180910390fd5b61119881611ad4565b50565b600033905090565b600073ffffffffffffffffffffffffffffffffffffffff168373ffffffffffffffffffffffffffffffffffffffff161415611213576040517f08c379a000000000000000000000000000000000000000000000000000000000815260040161120a90612c93565b60405180910390fd5b600073ffffffffffffffffffffffffffffffffffffffff168273ffffffffffffffffffffffffffffffffffffffff161415611283576040517f08c379a000000000000000000000000000000000000000000000000000000000815260040161127a90612d25565b60405180910390fd5b80603460008573ffffffffffffffffffffffffffffffffffffffff1673ffffffffffffffffffffffffffffffffffffffff16815260200190815260200160002060008473ffffffffffffffffffffffffffffffffffffffff1673ffffffffffffffffffffffffffffffffffffffff168152602001908152602001600020819055508173ffffffffffffffffffffffffffffffffffffffff168373ffffffffffffffffffffffffffffffffffffffff167f8c5be1e5ebec7d5bd14f71427d1e84f3dd0314c0f7b2291e5b200ac8c7c3b9258360405161136191906123f6565b60405180910390a3505050565b600061137a848461101c565b90507fffffffffffffffffffffffffffffffffffffffffffffffffffffffffffffffff81146113f457818110156113e6576040517f08c379a00000000000000000000000000000000000000000000000000000000081526004016113dd90612d91565b60405180910390fd5b6113f384848484036111a3565b5b50505050565b600073ffffffffffffffffffffffffffffffffffffffff168373ffffffffffffffffffffffffffffffffffffffff16141561146a576040517f08c379a000000000000000000000000000000000000000000000000000000000815260040161146190612e23565b60405180910390fd5b600073ffffffffffffffffffffffffffffffffffffffff168273ffffffffffffffffffffffffffffffffffffffff1614156114da576040517f08c379a00000000000000000000000000000000000000000000000000000000081526004016114d190612eb5565b60405180910390fd5b6114e5838383611d5d565b6000603360008573ffffffffffffffffffffffffffffffffffffffff1673ffffffffffffffffffffffffffffffffffffffff1681526020019081526020016000205490508181101561156c576040517f08c379a000000000000000000000000000000000000000000000000000000000815260040161156390612f47565b60405180910390fd5b818103603360008673ffffffffffffffffffffffffffffffffffffffff1673ffffffffffffffffffffffffffffffffffffffff1681526020019081526020016000208190555081603360008573ffffffffffffffffffffffffffffffffffffffff1673ffffffffffffffffffffffffffffffffffffffff168152602001908152602001600020600082825461160191906128ab565b925050819055508273ffffffffffffffffffffffffffffffffffffffff168473ffffffffffffffffffffffffffffffffffffffff167fddf252ad1be2c89b69c2b068fc378daa952ba7f163c4a11628f55a4df523b3ef8460405161166591906123f6565b60405180910390a3611678848484611d62565b50505050565b60006116ac7f360894a13ba1a3210667c828492db98dca3e2076cc3735a920a3ca505d382bbc60001b611d67565b60000160009054906101000a900473ffffffffffffffffffffffffffffffffffffffff16905090565b6116dd61119b565b73ffffffffffffffffffffffffffffffffffffffff166116fb610e53565b73ffffffffffffffffffffffffffffffffffffffff1614611751576040517f08c379a00000000000000000000000000000000000000000000000000000000081526004016117489061294d565b60405180910390fd5b50565b6117807f4910fdfa16fed3260ed0e7147f7cc6da11a60208b5b9406d12a635614ffd914360001b611d71565b60000160009054906101000a900460ff16156117a45761179f83611d7b565b6118cc565b8273ffffffffffffffffffffffffffffffffffffffff166352d1902d6040518163ffffffff1660e01b815260040160206040518083038186803b1580156117ea57600080fd5b505afa92505050801561181b57506040513d601f19601f820116820180604052508101906118189190612f93565b60015b61185a576040517f08c379a000000000000000000000000000000000000000000000000000000000815260040161185190613032565b60405180910390fd5b7f360894a13ba1a3210667c828492db98dca3e2076cc3735a920a3ca505d382bbc60001b81146118bf576040517f08c379a00000000000000000000000000000000000000000000000000000000081526004016118b6906130c4565b60405180910390fd5b506118cb838383611e34565b5b505050565b6118d9610b7d565b611918576040517f08c379a000000000000000000000000000000000000000000000000000000000815260040161190f90613130565b60405180910390fd5b600060c960006101000a81548160ff0219169083151502179055507f5db9ee0a495bf2e6ff9c91a7834c1ba4fdd244a5e8aa4e537bd38aeae4b073aa61195c61119b565b604051611969919061269c565b60405180910390a1565b600073ffffffffffffffffffffffffffffffffffffffff168273ffffffffffffffffffffffffffffffffffffffff1614156119e3576040517f08c379a00000000000000000000000000000000000000000000000000000000081526004016119da9061319c565b60405180910390fd5b6119ef60008383611d5d565b8060356000828254611a0191906128ab565b9250508190555080603360008473ffffffffffffffffffffffffffffffffffffffff1673ffffffffffffffffffffffffffffffffffffffff1681526020019081526020016000206000828254611a5791906128ab565b925050819055508173ffffffffffffffffffffffffffffffffffffffff16600073ffffffffffffffffffffffffffffffffffffffff167fddf252ad1be2c89b69c2b068fc378daa952ba7f163c4a11628f55a4df523b3ef83604051611abc91906123f6565b60405180910390a3611ad060008383611d62565b5050565b600060fb60009054906101000a900473ffffffffffffffffffffffffffffffffffffffff1690508160fb60006101000a81548173ffffffffffffffffffffffffffffffffffffffff021916908373ffffffffffffffffffffffffffffffffffffffff1602179055508173ffffffffffffffffffffffffffffffffffffffff168173ffffffffffffffffffffffffffffffffffffffff167f8be0079c531659141344cd1fd0a4f28419497f9722a3daafe3b4186f6b6457e060405160405180910390a35050565b6000611ba530611e60565b15905090565b600060019054906101000a900460ff16611bfa576040517f08c379a0000000000000000000000000000000000000000000000000000000008152600401611bf19061322e565b60405180910390fd5b611c02611e83565b565b600060019054906101000a900460ff16611c53576040517f08c379a0000000000000000000000000000000000000000000000000000000008152600401611c4a9061322e565b60405180910390fd5b611c5b611eef565b565b600060019054906101000a900460ff16611cac576040517f08c379a0000000000000000000000000000000000000000000000000000000008152600401611ca39061322e565b60405180910390fd5b611cb68282611f50565b5050565b611cc2610b7d565b15611d02576040517f08c379a0000000000000000000000000000000000000000000000000000000008152600401611cf9906129b9565b60405180910390fd5b600160c960006101000a81548160ff0219169083151502179055507f62e78cea01bee320cd4e420270b5ea74000d11b0c9f74754ebdbfc544b05a258611d4661119b565b604051611d53919061269c565b60405180910390a1565b505050565b505050565b6000819050919050565b6000819050919050565b611d8481611e60565b611dc3576040517f08c379a0000000000000000000000000000000000000000000000000000000008152600401611dba906132c0565b60405180910390fd5b80611df07f360894a13ba1a3210667c828492db98dca3e2076cc3735a920a3ca505d382bbc60001b611d67565b60000160006101000a81548173ffffffffffffffffffffffffffffffffffffffff021916908373ffffffffffffffffffffffffffffffffffffffff16021790555050565b611e3d83611fd1565b600082511180611e4a5750805b15611e5b57611e598383612020565b505b505050565b6000808273ffffffffffffffffffffffffffffffffffffffff163b119050919050565b600060019054906101000a900460ff16611ed2576040517f08c379a0000000000000000000000000000000000000000000000000000000008152600401611ec99061322e565b60405180910390fd5b600060c960006101000a81548160ff021916908315150217905550565b600060019054906101000a900460ff16611f3e576040517f08c379a0000000000000000000000000000000000000000000000000000000008152600401611f359061322e565b60405180910390fd5b611f4e611f4961119b565b611ad4565b565b600060019054906101000a900460ff16611f9f576040517f08c379a0000000000000000000000000000000000000000000000000000000008152600401611f969061322e565b60405180910390fd5b8160369080519060200190611fb592919061216b565b508060379080519060200190611fcc92919061216b565b505050565b611fda81611d7b565b8073ffffffffffffffffffffffffffffffffffffffff167fbc7cd75a20ee27fd9adebab32041f755214dbc6bffa90cc0225b39da2e5c2d3b60405160405180910390a250565b606061202b83611e60565b61206a576040517f08c379a000000000000000000000000000000000000000000000000000000000815260040161206190613352565b60405180910390fd5b6000808473ffffffffffffffffffffffffffffffffffffffff168460405161209291906133b9565b600060405180830381855af49150503d80600081146120cd576040519150601f19603f3d011682016040523d82523d6000602084013e6120d2565b606091505b50915091506120fa82826040518060600160405280602781526020016133d160279139612104565b9250505092915050565b6060831561211457829050612164565b6000835111156121275782518084602001fd5b816040517f08c379a000000000000000000000000000000000000000000000000000000000815260040161215b91906122a7565b60405180910390fd5b9392505050565b82805461217790612726565b90600052602060002090601f01602090048101928261219957600085556121e0565b82601f106121b257805160ff19168380011785556121e0565b828001600101855582156121e0579182015b828111156121df5782518255916020019190600101906121c4565b5b5090506121ed91906121f1565b5090565b5b8082111561220a5760008160009055506001016121f2565b5090565b600081519050919050565b600082825260208201905092915050565b60005b8381101561224857808201518184015260208101905061222d565b83811115612257576000848401525b50505050565b6000601f19601f8301169050919050565b60006122798261220e565b6122838185612219565b935061229381856020860161222a565b61229c8161225d565b840191505092915050565b600060208201905081810360008301526122c1818461226e565b905092915050565b6000604051905090565b600080fd5b600080fd5b600073ffffffffffffffffffffffffffffffffffffffff82169050919050565b6000612308826122dd565b9050919050565b612318816122fd565b811461232357600080fd5b50565b6000813590506123358161230f565b92915050565b6000819050919050565b61234e8161233b565b811461235957600080fd5b50565b60008135905061236b81612345565b92915050565b60008060408385031215612388576123876122d3565b5b600061239685828601612326565b92505060206123a78582860161235c565b9150509250929050565b60008115159050919050565b6123c6816123b1565b82525050565b60006020820190506123e160008301846123bd565b92915050565b6123f08161233b565b82525050565b600060208201905061240b60008301846123e7565b92915050565b60008060006060848603121561242a576124296122d3565b5b600061243886828701612326565b935050602061244986828701612326565b925050604061245a8682870161235c565b9150509250925092565b600060ff82169050919050565b61247a81612464565b82525050565b60006020820190506124956000830184612471565b92915050565b6000602082840312156124b1576124b06122d3565b5b60006124bf84828501612326565b91505092915050565b600080fd5b600080fd5b7f4e487b7100000000000000000000000000000000000000000000000000000000600052604160045260246000fd5b61250a8261225d565b810181811067ffffffffffffffff82111715612529576125286124d2565b5b80604052505050565b600061253c6122c9565b90506125488282612501565b919050565b600067ffffffffffffffff821115612568576125676124d2565b5b6125718261225d565b9050602081019050919050565b82818337600083830152505050565b60006125a061259b8461254d565b612532565b9050828152602081018484840111156125bc576125bb6124cd565b5b6125c784828561257e565b509392505050565b600082601f8301126125e4576125e36124c8565b5b81356125f484826020860161258d565b91505092915050565b60008060408385031215612614576126136122d3565b5b600061262285828601612326565b925050602083013567ffffffffffffffff811115612643576126426122d8565b5b61264f858286016125cf565b9150509250929050565b6000819050919050565b61266c81612659565b82525050565b60006020820190506126876000830184612663565b92915050565b612696816122fd565b82525050565b60006020820190506126b1600083018461268d565b92915050565b600080604083850312156126ce576126cd6122d3565b5b60006126dc85828601612326565b92505060206126ed85828601612326565b9150509250929050565b7f4e487b7100000000000000000000000000000000000000000000000000000000600052602260045260246000fd5b6000600282049050600182168061273e57607f821691505b60208210811415612752576127516126f7565b5b50919050565b7f46756e6374696f6e206d7573742062652063616c6c6564207468726f7567682060008201527f64656c656761746563616c6c0000000000000000000000000000000000000000602082015250565b60006127b4602c83612219565b91506127bf82612758565b604082019050919050565b600060208201905081810360008301526127e3816127a7565b9050919050565b7f46756e6374696f6e206d7573742062652063616c6c6564207468726f7567682060008201527f6163746976652070726f78790000000000000000000000000000000000000000602082015250565b6000612846602c83612219565b9150612851826127ea565b604082019050919050565b6000602082019050818103600083015261287581612839565b9050919050565b7f4e487b7100000000000000000000000000000000000000000000000000000000600052601160045260246000fd5b60006128b68261233b565b91506128c18361233b565b9250827fffffffffffffffffffffffffffffffffffffffffffffffffffffffffffffffff038211156128f6576128f561287c565b5b828201905092915050565b7f4f776e61626c653a2063616c6c6572206973206e6f7420746865206f776e6572600082015250565b6000612937602083612219565b915061294282612901565b602082019050919050565b600060208201905081810360008301526129668161292a565b9050919050565b7f5061757361626c653a2070617573656400000000000000000000000000000000600082015250565b60006129a3601083612219565b91506129ae8261296d565b602082019050919050565b600060208201905081810360008301526129d281612996565b9050919050565b7f555550535570677261646561626c653a206d757374206e6f742062652063616c60008201527f6c6564207468726f7567682064656c656761746563616c6c0000000000000000602082015250565b6000612a35603883612219565b9150612a40826129d9565b604082019050919050565b60006020820190508181036000830152612a6481612a28565b9050919050565b7f496e697469616c697a61626c653a20636f6e747261637420697320616c72656160008201527f647920696e697469616c697a6564000000000000000000000000000000000000602082015250565b6000612ac7602e83612219565b9150612ad282612a6b565b604082019050919050565b60006020820190508181036000830152612af681612aba565b9050919050565b7f45524332303a2064656372656173656420616c6c6f77616e63652062656c6f7760008201527f207a65726f000000000000000000000000000000000000000000000000000000602082015250565b6000612b59602583612219565b9150612b6482612afd565b604082019050919050565b60006020820190508181036000830152612b8881612b4c565b9050919050565b7f4f776e61626c653a206e6577206f776e657220697320746865207a65726f206160008201527f6464726573730000000000000000000000000000000000000000000000000000602082015250565b6000612beb602683612219565b9150612bf682612b8f565b604082019050919050565b60006020820190508181036000830152612c1a81612bde565b9050919050565b7f45524332303a20617070726f76652066726f6d20746865207a65726f2061646460008201527f7265737300000000000000000000000000000000000000000000000000000000602082015250565b6000612c7d602483612219565b9150612c8882612c21565b604082019050919050565b60006020820190508181036000830152612cac81612c70565b9050919050565b7f45524332303a20617070726f766520746f20746865207a65726f20616464726560008201527f7373000000000000000000000000000000000000000000000000000000000000602082015250565b6000612d0f602283612219565b9150612d1a82612cb3565b604082019050919050565b60006020820190508181036000830152612d3e81612d02565b9050919050565b7f45524332303a20696e73756666696369656e7420616c6c6f77616e6365000000600082015250565b6000612d7b601d83612219565b9150612d8682612d45565b602082019050919050565b60006020820190508181036000830152612daa81612d6e565b9050919050565b7f45524332303a207472616e736665722066726f6d20746865207a65726f20616460008201527f6472657373000000000000000000000000000000000000000000000000000000602082015250565b6000612e0d602583612219565b9150612e1882612db1565b604082019050919050565b60006020820190508181036000830152612e3c81612e00565b9050919050565b7f45524332303a207472616e7366657220746f20746865207a65726f206164647260008201527f6573730000000000000000000000000000000000000000000000000000000000602082015250565b6000612e9f602383612219565b9150612eaa82612e43565b604082019050919050565b60006020820190508181036000830152612ece81612e92565b9050919050565b7f45524332303a207472616e7366657220616d6f756e742065786365656473206260008201527f616c616e63650000000000000000000000000000000000000000000000000000602082015250565b6000612f31602683612219565b9150612f3c82612ed5565b604082019050919050565b60006020820190508181036000830152612f6081612f24565b9050919050565b612f7081612659565b8114612f7b57600080fd5b50565b600081519050612f8d81612f67565b92915050565b600060208284031215612fa957612fa86122d3565b5b6000612fb784828501612f7e565b91505092915050565b7f45524331393637557067726164653a206e657720696d706c656d656e7461746960008201527f6f6e206973206e6f742055555053000000000000000000000000000000000000602082015250565b600061301c602e83612219565b915061302782612fc0565b604082019050919050565b6000602082019050818103600083015261304b8161300f565b9050919050565b7f45524331393637557067726164653a20756e737570706f727465642070726f7860008201527f6961626c65555549440000000000000000000000000000000000000000000000602082015250565b60006130ae602983612219565b91506130b982613052565b604082019050919050565b600060208201905081810360008301526130dd816130a1565b9050919050565b7f5061757361626c653a206e6f7420706175736564000000000000000000000000600082015250565b600061311a601483612219565b9150613125826130e4565b602082019050919050565b600060208201905081810360008301526131498161310d565b9050919050565b7f45524332303a206d696e7420746f20746865207a65726f206164647265737300600082015250565b6000613186601f83612219565b915061319182613150565b602082019050919050565b600060208201905081810360008301526131b581613179565b9050919050565b7f496e697469616c697a61626c653a20636f6e7472616374206973206e6f74206960008201527f6e697469616c697a696e67000000000000000000000000000000000000000000602082015250565b6000613218602b83612219565b9150613223826131bc565b604082019050919050565b600060208201905081810360008301526132478161320b565b9050919050565b7f455243313936373a206e657720696d706c656d656e746174696f6e206973206e60008201527f6f74206120636f6e747261637400000000000000000000000000000000000000602082015250565b60006132aa602d83612219565b91506132b58261324e565b604082019050919050565b600060208201905081810360008301526132d98161329d565b9050919050565b7f416464726573733a2064656c65676174652063616c6c20746f206e6f6e2d636f60008201527f6e74726163740000000000000000000000000000000000000000000000000000602082015250565b600061333c602683612219565b9150613347826132e0565b604082019050919050565b6000602082019050818103600083015261336b8161332f565b9050919050565b600081519050919050565b600081905092915050565b600061339382613372565b61339d818561337d565b93506133ad81856020860161222a565b80840191505092915050565b60006133c58284613388565b91508190509291505056fe416464726573733a206c6f772d6c6576656c2064656c65676174652063616c6c206661696c6564a2646970667358221220c520c49cfbb1635ebd14b3961669bacefa2e37eb7a0e8f5fdf4a00bf45b4038e64736f6c63430008090033",
  "linkReferences": {},
  "deployedLinkReferences": {}
}